{
  "contractName": "Consumer",
  "abi": [
    {
      "inputs": [
        {
          "internalType": "address",
          "name": "_add",
          "type": "address"
        }
      ],
      "name": "addConsumer",
      "outputs": [],
      "stateMutability": "nonpayable",
      "type": "function"
    },
    {
      "inputs": [
        {
          "internalType": "address",
          "name": "_add",
          "type": "address"
        }
      ],
      "name": "removeConsumer",
      "outputs": [],
      "stateMutability": "nonpayable",
      "type": "function"
    }
  ],
  "bytecode": "0x608060405234801561001057600080fd5b50610654806100206000396000f3fe608060405234801561001057600080fd5b50600436106100365760003560e01c80630e27e3df1461003b578063112940f914610057575b600080fd5b61005560048036038101906100509190610430565b610073565b005b610071600480360381019061006c9190610430565b610081565b005b61007e60008261008f565b50565b61008c6000826101a6565b50565b600073ffffffffffffffffffffffffffffffffffffffff168173ffffffffffffffffffffffffffffffffffffffff1614156100ff576040517f08c379a00000000000000000000000000000000000000000000000000000000081526004016100f6906104ba565b60405180910390fd5b6101098282610305565b610148576040517f08c379a000000000000000000000000000000000000000000000000000000000815260040161013f90610526565b60405180910390fd5b60008260000160008373ffffffffffffffffffffffffffffffffffffffff1673ffffffffffffffffffffffffffffffffffffffff16815260200190815260200160002060006101000a81548160ff0219169083151502179055505050565b600073ffffffffffffffffffffffffffffffffffffffff168173ffffffffffffffffffffffffffffffffffffffff161415610216576040517f08c379a000000000000000000000000000000000000000000000000000000000815260040161020d906104ba565b60405180910390fd5b6102208282610305565b15610260576040517f08c379a000000000000000000000000000000000000000000000000000000000815260040161025790610592565b60405180910390fd5b60018260000160008373ffffffffffffffffffffffffffffffffffffffff1673ffffffffffffffffffffffffffffffffffffffff16815260200190815260200160002060006101000a81548160ff02191690831515021790555060008260010160008373ffffffffffffffffffffffffffffffffffffffff1673ffffffffffffffffffffffffffffffffffffffff168152602001908152602001600020819055505050565b60008073ffffffffffffffffffffffffffffffffffffffff168273ffffffffffffffffffffffffffffffffffffffff161415610376576040517f08c379a000000000000000000000000000000000000000000000000000000000815260040161036d906105fe565b60405180910390fd5b8260000160008373ffffffffffffffffffffffffffffffffffffffff1673ffffffffffffffffffffffffffffffffffffffff16815260200190815260200160002060009054906101000a900460ff16905092915050565b600080fd5b600073ffffffffffffffffffffffffffffffffffffffff82169050919050565b60006103fd826103d2565b9050919050565b61040d816103f2565b811461041857600080fd5b50565b60008135905061042a81610404565b92915050565b600060208284031215610446576104456103cd565b5b60006104548482850161041b565b91505092915050565b600082825260208201905092915050565b7f416464726573732063616e6e6f74206265207a65726f00000000000000000000600082015250565b60006104a460168361045d565b91506104af8261046e565b602082019050919050565b600060208201905081810360008301526104d381610497565b9050919050565b7f4d656d62657220646f6573206e6f742065786973740000000000000000000000600082015250565b600061051060158361045d565b915061051b826104da565b602082019050919050565b6000602082019050818103600083015261053f81610503565b9050919050565b7f416c726561647920526567697374657265640000000000000000000000000000600082015250565b600061057c60128361045d565b915061058782610546565b602082019050919050565b600060208201905081810360008301526105ab8161056f565b9050919050565b7f416464726573732063616e6e6f74206265207a65726f20616464726573730000600082015250565b60006105e8601e8361045d565b91506105f3826105b2565b602082019050919050565b60006020820190508181036000830152610617816105db565b905091905056fea2646970667358221220c39aea4d10b30b5f5e073c09ab46df303e8fec89cf88994bf92e0a1117173fe064736f6c634300080a0033",
  "immutableReferences": {},
  "source": "// SPDX-License-Identifier: GPL-3.0\r\npragma solidity >=0.7.0 <0.9.0;\r\n\r\nimport \"./Roles.sol\";\r\n\r\ncontract Consumer{\r\n    using Roles for Roles.Record;\r\n\r\n    Roles.Record private consumers;\r\n\r\n    function addConsumer(address _add) public {\r\n        Roles.add_member(consumers, _add);\r\n    }\r\n\r\n    function removeConsumer(address _add) public {\r\n        Roles.remove_member(consumers, _add);\r\n    }\r\n\r\n    function isConsumer(address _add) internal view returns(bool){\r\n        return Roles.is_member(consumers, _add);\r\n    }\r\n}",
  "sourcePath": "F:\\project\\Saffron_Final_year\\contracts\\Roles\\Consumer.sol",
  "compiler": {
    "name": "solc",
    "version": "0.8.10+commit.fc410830.Emscripten.clang"
  },
  "schemaVersion": "3.3.4",
  "updatedAt": "2022-05-19T12:22:06.158Z",
  "devdoc": {
    "kind": "dev",
    "methods": {},
    "version": 1
  },
  "userdoc": {
    "kind": "user",
    "methods": {},
    "version": 1
  }
}