{
  "contractName": "Retailer",
  "abi": [
    {
      "inputs": [
        {
          "internalType": "address",
          "name": "_add",
          "type": "address"
        }
      ],
      "name": "addRetailer",
      "outputs": [],
      "stateMutability": "nonpayable",
      "type": "function"
    },
    {
      "inputs": [
        {
          "internalType": "address",
          "name": "_add",
          "type": "address"
        }
      ],
      "name": "removeRetailer",
      "outputs": [],
      "stateMutability": "nonpayable",
      "type": "function"
    }
  ],
  "bytecode": "0x608060405234801561001057600080fd5b5061060d806100206000396000f3fe608060405234801561001057600080fd5b50600436106100365760003560e01c806370099ec81461003b5780638ec4f50514610057575b600080fd5b610055600480360381019061005091906103e9565b610073565b005b610071600480360381019061006c91906103e9565b610081565b005b61007e60008261008f565b50565b61008c6000826101a6565b50565b600073ffffffffffffffffffffffffffffffffffffffff168173ffffffffffffffffffffffffffffffffffffffff1614156100ff576040517f08c379a00000000000000000000000000000000000000000000000000000000081526004016100f690610473565b60405180910390fd5b61010982826102be565b610148576040517f08c379a000000000000000000000000000000000000000000000000000000000815260040161013f906104df565b60405180910390fd5b60008260000160008373ffffffffffffffffffffffffffffffffffffffff1673ffffffffffffffffffffffffffffffffffffffff16815260200190815260200160002060006101000a81548160ff0219169083151502179055505050565b600073ffffffffffffffffffffffffffffffffffffffff168173ffffffffffffffffffffffffffffffffffffffff161415610216576040517f08c379a000000000000000000000000000000000000000000000000000000000815260040161020d90610473565b60405180910390fd5b61022082826102be565b15610260576040517f08c379a00000000000000000000000000000000000000000000000000000000081526004016102579061054b565b60405180910390fd5b60018260000160008373ffffffffffffffffffffffffffffffffffffffff1673ffffffffffffffffffffffffffffffffffffffff16815260200190815260200160002060006101000a81548160ff0219169083151502179055505050565b60008073ffffffffffffffffffffffffffffffffffffffff168273ffffffffffffffffffffffffffffffffffffffff16141561032f576040517f08c379a0000000000000000000000000000000000000000000000000000000008152600401610326906105b7565b60405180910390fd5b8260000160008373ffffffffffffffffffffffffffffffffffffffff1673ffffffffffffffffffffffffffffffffffffffff16815260200190815260200160002060009054906101000a900460ff16905092915050565b600080fd5b600073ffffffffffffffffffffffffffffffffffffffff82169050919050565b60006103b68261038b565b9050919050565b6103c6816103ab565b81146103d157600080fd5b50565b6000813590506103e3816103bd565b92915050565b6000602082840312156103ff576103fe610386565b5b600061040d848285016103d4565b91505092915050565b600082825260208201905092915050565b7f416464726573732063616e6e6f74206265207a65726f00000000000000000000600082015250565b600061045d601683610416565b915061046882610427565b602082019050919050565b6000602082019050818103600083015261048c81610450565b9050919050565b7f4d656d62657220646f6573206e6f742065786973740000000000000000000000600082015250565b60006104c9601583610416565b91506104d482610493565b602082019050919050565b600060208201905081810360008301526104f8816104bc565b9050919050565b7f416c726561647920526567697374657265640000000000000000000000000000600082015250565b6000610535601283610416565b9150610540826104ff565b602082019050919050565b6000602082019050818103600083015261056481610528565b9050919050565b7f416464726573732063616e6e6f74206265207a65726f20616464726573730000600082015250565b60006105a1601e83610416565b91506105ac8261056b565b602082019050919050565b600060208201905081810360008301526105d081610594565b905091905056fea2646970667358221220f6bf8d73bba81235663e8f42a741dc85ae8d30a0d927535c0356ce35b8b91d2764736f6c634300080a0033",
  "immutableReferences": {},
  "source": "// SPDX-License-Identifier: GPL-3.0\r\npragma solidity >=0.7.0 <0.9.0;\r\n\r\nimport \"./Roles.sol\";\r\n\r\ncontract Retailer{\r\n    using Roles for Roles.Record;\r\n\r\n    Roles.Record private retailers;\r\n\r\n    function addRetailer(address _add) public {\r\n        Roles.add_member(retailers, _add);\r\n    }\r\n\r\n    function removeRetailer(address _add) public {\r\n        Roles.remove_member(retailers, _add);\r\n    }\r\n\r\n    function isRetailer(address _add) internal view returns(bool){\r\n        return Roles.is_member(retailers, _add);\r\n    }\r\n}",
  "sourcePath": "F:\\project\\Saffron_Final_year\\contracts\\Roles\\Retailer.sol",
  "compiler": {
    "name": "solc",
    "version": "0.8.10+commit.fc410830.Emscripten.clang"
  },
  "schemaVersion": "3.4.4",
  "updatedAt": "2022-03-21T11:44:01.233Z",
  "devdoc": {
    "kind": "dev",
    "methods": {},
    "version": 1
  },
  "userdoc": {
    "kind": "user",
    "methods": {},
    "version": 1
  }
}