{
  "contractName": "SupplyChain",
  "abi": [
    {
      "inputs": [
        {
          "internalType": "address",
          "name": "_add",
          "type": "address"
        }
      ],
      "name": "addConsumer",
      "outputs": [],
      "stateMutability": "nonpayable",
      "type": "function"
    },
    {
      "inputs": [
        {
          "internalType": "address",
          "name": "_add",
          "type": "address"
        }
      ],
      "name": "addDistributor",
      "outputs": [],
      "stateMutability": "nonpayable",
      "type": "function"
    },
    {
      "inputs": [
        {
          "internalType": "address",
          "name": "_add",
          "type": "address"
        }
      ],
      "name": "addRetailer",
      "outputs": [],
      "stateMutability": "nonpayable",
      "type": "function"
    },
    {
      "inputs": [
        {
          "internalType": "uint256",
          "name": "num_max",
          "type": "uint256"
        },
        {
          "internalType": "uint256",
          "name": "num_min",
          "type": "uint256"
        }
      ],
      "name": "generate_random",
      "outputs": [
        {
          "internalType": "uint256",
          "name": "",
          "type": "uint256"
        }
      ],
      "stateMutability": "nonpayable",
      "type": "function"
    },
    {
      "inputs": [],
      "name": "random_num",
      "outputs": [
        {
          "internalType": "uint256",
          "name": "",
          "type": "uint256"
        }
      ],
      "stateMutability": "view",
      "type": "function"
    },
    {
      "inputs": [
        {
          "internalType": "address",
          "name": "_add",
          "type": "address"
        }
      ],
      "name": "removeConsumer",
      "outputs": [],
      "stateMutability": "nonpayable",
      "type": "function"
    },
    {
      "inputs": [
        {
          "internalType": "address",
          "name": "_add",
          "type": "address"
        }
      ],
      "name": "removeDistributor",
      "outputs": [],
      "stateMutability": "nonpayable",
      "type": "function"
    },
    {
      "inputs": [
        {
          "internalType": "address",
          "name": "_add",
          "type": "address"
        }
      ],
      "name": "removeRetailer",
      "outputs": [],
      "stateMutability": "nonpayable",
      "type": "function"
    },
    {
      "inputs": [],
      "name": "reset",
      "outputs": [],
      "stateMutability": "nonpayable",
      "type": "function"
    },
    {
      "inputs": [],
      "name": "ver_register",
      "outputs": [],
      "stateMutability": "nonpayable",
      "type": "function"
    },
    {
      "inputs": [
        {
          "internalType": "uint256",
          "name": "_id",
          "type": "uint256"
        }
      ],
      "name": "harvest_product",
      "outputs": [],
      "stateMutability": "nonpayable",
      "type": "function"
    },
    {
      "inputs": [
        {
          "internalType": "uint256",
          "name": "_id",
          "type": "uint256"
        }
      ],
      "name": "dry_product",
      "outputs": [],
      "stateMutability": "nonpayable",
      "type": "function"
    },
    {
      "inputs": [
        {
          "internalType": "uint256",
          "name": "_id",
          "type": "uint256"
        },
        {
          "internalType": "string",
          "name": "_grade",
          "type": "string"
        }
      ],
      "name": "grading",
      "outputs": [],
      "stateMutability": "nonpayable",
      "type": "function"
    },
    {
      "inputs": [
        {
          "internalType": "uint256",
          "name": "_id",
          "type": "uint256"
        }
      ],
      "name": "packing",
      "outputs": [],
      "stateMutability": "nonpayable",
      "type": "function"
    },
    {
      "inputs": [
        {
          "internalType": "uint256",
          "name": "_id",
          "type": "uint256"
        }
      ],
      "name": "for_sale",
      "outputs": [],
      "stateMutability": "nonpayable",
      "type": "function"
    },
    {
      "inputs": [
        {
          "internalType": "uint256",
          "name": "_id",
          "type": "uint256"
        }
      ],
      "name": "sell_to_distributor",
      "outputs": [],
      "stateMutability": "payable",
      "type": "function"
    },
    {
      "inputs": [
        {
          "internalType": "uint256",
          "name": "_id",
          "type": "uint256"
        }
      ],
      "name": "sell_to_retialer",
      "outputs": [],
      "stateMutability": "payable",
      "type": "function"
    },
    {
      "inputs": [
        {
          "internalType": "uint256",
          "name": "_id",
          "type": "uint256"
        }
      ],
      "name": "sell_to_consumer",
      "outputs": [],
      "stateMutability": "payable",
      "type": "function"
    }
  ],
  "bytecode": "0x608060405260006008556000600e5534801561001a57600080fd5b5061325c8061002a6000396000f3fe6080604052600436106101095760003560e01c80638ec4f50511610095578063e2f8678a11610064578063e2f8678a14610306578063edde83491461032f578063eefbb33f1461035a578063f02e94ea14610376578063fb25b49a1461039257610109565b80638ec4f505146102745780639a5c1ef11461029d578063caca7746146102c6578063d826f88f146102ef57610109565b806370099ec8116100dc57806370099ec8146101a55780637250e224146101ce578063793a8866146101f75780637d0703f41461020e578063870883551461023757610109565b80630652bebf1461010e5780630e27e3df1461012a578063112940f91461015357806357c1f9e21461017c575b600080fd5b61012860048036038101906101239190612670565b6103bb565b005b34801561013657600080fd5b50610151600480360381019061014c91906126fb565b6106d4565b005b34801561015f57600080fd5b5061017a600480360381019061017591906126fb565b6106e2565b005b34801561018857600080fd5b506101a3600480360381019061019e91906126fb565b6106f0565b005b3480156101b157600080fd5b506101cc60048036038101906101c791906126fb565b6106fe565b005b3480156101da57600080fd5b506101f560048036038101906101f091906126fb565b61070c565b005b34801561020357600080fd5b5061020c61071a565b005b34801561021a57600080fd5b5061023560048036038101906102309190612670565b61095d565b005b34801561024357600080fd5b5061025e60048036038101906102599190612728565b610b3a565b60405161026b9190612777565b60405180910390f35b34801561028057600080fd5b5061029b600480360381019061029691906126fb565b610be6565b005b3480156102a957600080fd5b506102c460048036038101906102bf9190612670565b610bf4565b005b3480156102d257600080fd5b506102ed60048036038101906102e891906128d8565b610dd1565b005b3480156102fb57600080fd5b50610304610fda565b005b34801561031257600080fd5b5061032d60048036038101906103289190612670565b6110ec565b005b34801561033b57600080fd5b5061034461147e565b6040516103519190612777565b60405180910390f35b610374600480360381019061036f9190612670565b611484565b005b610390600480360381019061038b9190612670565b6117b8565b005b34801561039e57600080fd5b506103b960048036038101906103b49190612670565b611ad1565b005b80600115156013600083815260200190815260200160002060009054906101000a900460ff16151514610423576040517f08c379a000000000000000000000000000000000000000000000000000000000815260040161041a90612991565b60405180910390fd5b8160046007811115610438576104376129b1565b5b6012600083815260200190815260200160002060070160149054906101000a900460ff16600781111561046e5761046d6129b1565b5b146104ae576040517f08c379a00000000000000000000000000000000000000000000000000000000081526004016104a590612a2c565b60405180910390fd5b601260008481526020019081526020016000206002015480341015610508576040517f08c379a00000000000000000000000000000000000000000000000000000000081526004016104ff90612abe565b60405180910390fd5b3361051281611cae565b610551576040517f08c379a000000000000000000000000000000000000000000000000000000000815260040161054890612b2a565b60405180910390fd5b6012600086815260200190815260200160002060070160009054906101000a900473ffffffffffffffffffffffffffffffffffffffff1673ffffffffffffffffffffffffffffffffffffffff166108fc60126000888152602001908152602001600020600201549081150290604051600060405180830381858888f193505050501580156105e3573d6000803e3d6000fd5b50336012600087815260200190815260200160002060070160006101000a81548173ffffffffffffffffffffffffffffffffffffffff021916908373ffffffffffffffffffffffffffffffffffffffff160217905550336012600087815260200190815260200160002060060160006101000a81548173ffffffffffffffffffffffffffffffffffffffff021916908373ffffffffffffffffffffffffffffffffffffffff16021790555060076012600087815260200190815260200160002060070160146101000a81548160ff021916908360078111156106c8576106c76129b1565b5b02179055505050505050565b6106df600682611cc2565b50565b6106ed600682611dd9565b50565b6106fb600282611cc2565b50565b610709600482611cc2565b50565b610717600282611dd9565b50565b60001515600f60003373ffffffffffffffffffffffffffffffffffffffff1673ffffffffffffffffffffffffffffffffffffffff16815260200190815260200160002060009054906101000a900460ff1615151461077757600080fd5b6001600f60003373ffffffffffffffffffffffffffffffffffffffff1673ffffffffffffffffffffffffffffffffffffffff16815260200190815260200160002060006101000a81548160ff0219169083151502179055506107d761248d565b600e60008154809291906107ea90612b79565b919050558160000181815250506001816020018181525050806010600083600001518152602001908152602001600020600082015181600001556020820151816001015560408201518160020160006101000a81548160ff0219169083151502179055509050506001600d60008360000151815260200190815260200160002060006101000a81548160ff021916908315150217905550600a819080600181540180825580915050600190039060005260206000209060030201600090919091909150600082015181600001556020820151816001015560408201518160020160006101000a81548160ff021916908315150217905550505080601160003373ffffffffffffffffffffffffffffffffffffffff1673ffffffffffffffffffffffffffffffffffffffff168152602001908152602001600020600082015181600001556020820151816001015560408201518160020160006101000a81548160ff02191690831515021790555090505050565b80600115156013600083815260200190815260200160002060009054906101000a900460ff161515146109c5576040517f08c379a00000000000000000000000000000000000000000000000000000000081526004016109bc90612991565b60405180910390fd5b81600060078111156109da576109d96129b1565b5b6012600083815260200190815260200160002060070160149054906101000a900460ff166007811115610a1057610a0f6129b1565b5b14610a50576040517f08c379a0000000000000000000000000000000000000000000000000000000008152600401610a4790612c0e565b60405180910390fd5b823373ffffffffffffffffffffffffffffffffffffffff166012600083815260200190815260200160002060030160009054906101000a900473ffffffffffffffffffffffffffffffffffffffff1673ffffffffffffffffffffffffffffffffffffffff1614610af5576040517f08c379a0000000000000000000000000000000000000000000000000000000008152600401610aec90612b2a565b60405180910390fd5b60016012600086815260200190815260200160002060070160146101000a81548160ff02191690836007811115610b2f57610b2e6129b1565b5b021790555050505050565b600060086000815480929190610b4f90612b79565b919050555060644233600854604051602001610b6d93929190612c97565b6040516020818303038152906040528051906020012060001c610b909190612d03565b60098190555060006064905060008385610baa9190612d34565b90508382826000600954610bbe9190612d34565b610bc89190612d68565b610bd29190612dc2565b610bdc9190612df3565b9250505092915050565b610bf1600482611dd9565b50565b80600115156013600083815260200190815260200160002060009054906101000a900460ff16151514610c5c576040517f08c379a0000000000000000000000000000000000000000000000000000000008152600401610c5390612991565b60405180910390fd5b8160026007811115610c7157610c706129b1565b5b6012600083815260200190815260200160002060070160149054906101000a900460ff166007811115610ca757610ca66129b1565b5b14610ce7576040517f08c379a0000000000000000000000000000000000000000000000000000000008152600401610cde90612e95565b60405180910390fd5b823373ffffffffffffffffffffffffffffffffffffffff166012600083815260200190815260200160002060030160009054906101000a900473ffffffffffffffffffffffffffffffffffffffff1673ffffffffffffffffffffffffffffffffffffffff1614610d8c576040517f08c379a0000000000000000000000000000000000000000000000000000000008152600401610d8390612b2a565b60405180910390fd5b60036012600086815260200190815260200160002060070160146101000a81548160ff02191690836007811115610dc657610dc56129b1565b5b021790555050505050565b81600115156013600083815260200190815260200160002060009054906101000a900460ff16151514610e39576040517f08c379a0000000000000000000000000000000000000000000000000000000008152600401610e3090612991565b60405180910390fd5b8260016007811115610e4e57610e4d6129b1565b5b6012600083815260200190815260200160002060070160149054906101000a900460ff166007811115610e8457610e836129b1565b5b14610ec4576040517f08c379a0000000000000000000000000000000000000000000000000000000008152600401610ebb90612f01565b60405180910390fd5b833373ffffffffffffffffffffffffffffffffffffffff166012600083815260200190815260200160002060030160009054906101000a900473ffffffffffffffffffffffffffffffffffffffff1673ffffffffffffffffffffffffffffffffffffffff1614610f69576040517f08c379a0000000000000000000000000000000000000000000000000000000008152600401610f6090612b2a565b60405180910390fd5b83601260008781526020019081526020016000206008019080519060200190610f939291906124b0565b5060026012600087815260200190815260200160002060070160146101000a81548160ff02191690836007811115610fce57610fcd6129b1565b5b02179055505050505050565b60005b600a8054905081101561104e576001600d6000600a848154811061100457611003612f21565b5b906000526020600020906003020160000154815260200190815260200160002060006101000a81548160ff021916908315150217905550808061104690612b79565b915050610fdd565b506000600b8054905090505b6000811461109d57600b80548061107457611073612f50565b5b60019003818190600052602060002001600090559055808061109590612f7f565b91505061105a565b600c8054905090505b600081146110e957600c8054806110c0576110bf612f50565b5b6001900381819060005260206000200160009055905580806110e190612f7f565b9150506110a6565b50565b6110f533611f38565b6110fe57600080fd5b611106612536565b8181600001818152505033816060019073ffffffffffffffffffffffffffffffffffffffff16908173ffffffffffffffffffffffffffffffffffffffff168152505080606001518160e0019073ffffffffffffffffffffffffffffffffffffffff16908173ffffffffffffffffffffffffffffffffffffffff16815250506000816080019073ffffffffffffffffffffffffffffffffffffffff16908173ffffffffffffffffffffffffffffffffffffffff168152505080608001518160a0019073ffffffffffffffffffffffffffffffffffffffff16908173ffffffffffffffffffffffffffffffffffffffff168152505080608001518160c0019073ffffffffffffffffffffffffffffffffffffffff16908173ffffffffffffffffffffffffffffffffffffffff16815250506000816101000190600781111561124f5761124e6129b1565b5b90816007811115611263576112626129b1565b5b81525050806012600084815260200190815260200160002060008201518160000155602082015181600101556040820151816002015560608201518160030160006101000a81548173ffffffffffffffffffffffffffffffffffffffff021916908373ffffffffffffffffffffffffffffffffffffffff16021790555060808201518160040160006101000a81548173ffffffffffffffffffffffffffffffffffffffff021916908373ffffffffffffffffffffffffffffffffffffffff16021790555060a08201518160050160006101000a81548173ffffffffffffffffffffffffffffffffffffffff021916908373ffffffffffffffffffffffffffffffffffffffff16021790555060c08201518160060160006101000a81548173ffffffffffffffffffffffffffffffffffffffff021916908373ffffffffffffffffffffffffffffffffffffffff16021790555060e08201518160070160006101000a81548173ffffffffffffffffffffffffffffffffffffffff021916908373ffffffffffffffffffffffffffffffffffffffff1602179055506101008201518160070160146101000a81548160ff02191690836007811115611428576114276129b1565b5b021790555061012082015181600801908051906020019061144a9291906124b0565b5090505060016013600084815260200190815260200160002060006101000a81548160ff0219169083151502179055505050565b60095481565b80600115156013600083815260200190815260200160002060009054906101000a900460ff161515146114ec576040517f08c379a00000000000000000000000000000000000000000000000000000000081526004016114e390612991565b60405180910390fd5b8160046007811115611501576115006129b1565b5b6012600083815260200190815260200160002060070160149054906101000a900460ff166007811115611537576115366129b1565b5b14611577576040517f08c379a000000000000000000000000000000000000000000000000000000000815260040161156e90612a2c565b60405180910390fd5b3361158181611f4c565b6115c0576040517f08c379a00000000000000000000000000000000000000000000000000000000081526004016115b790612b2a565b60405180910390fd5b60126000858152602001908152602001600020600201548034101561161a576040517f08c379a000000000000000000000000000000000000000000000000000000000815260040161161190612abe565b60405180910390fd5b6000611624611f60565b90506000151581151514156116c7576012600087815260200190815260200160002060070160009054906101000a900473ffffffffffffffffffffffffffffffffffffffff1673ffffffffffffffffffffffffffffffffffffffff166108fc60126000898152602001908152602001600020600201549081150290604051600060405180830381858888f193505050501580156116c5573d6000803e3d6000fd5b505b336012600088815260200190815260200160002060070160006101000a81548173ffffffffffffffffffffffffffffffffffffffff021916908373ffffffffffffffffffffffffffffffffffffffff160217905550336012600088815260200190815260200160002060040160006101000a81548173ffffffffffffffffffffffffffffffffffffffff021916908373ffffffffffffffffffffffffffffffffffffffff16021790555060056012600088815260200190815260200160002060070160146101000a81548160ff021916908360078111156117ab576117aa6129b1565b5b0217905550505050505050565b80600115156013600083815260200190815260200160002060009054906101000a900460ff16151514611820576040517f08c379a000000000000000000000000000000000000000000000000000000000815260040161181790612991565b60405180910390fd5b60126000838152602001908152602001600020600201548034101561187a576040517f08c379a000000000000000000000000000000000000000000000000000000000815260040161187190612abe565b60405180910390fd5b3361188481611f7f565b6118c3576040517f08c379a00000000000000000000000000000000000000000000000000000000081526004016118ba90612b2a565b60405180910390fd5b83600560078111156118d8576118d76129b1565b5b6012600083815260200190815260200160002060070160149054906101000a900460ff16600781111561190e5761190d6129b1565b5b1461194e576040517f08c379a000000000000000000000000000000000000000000000000000000000815260040161194590612b2a565b60405180910390fd5b6012600086815260200190815260200160002060070160009054906101000a900473ffffffffffffffffffffffffffffffffffffffff1673ffffffffffffffffffffffffffffffffffffffff166108fc60126000888152602001908152602001600020600201549081150290604051600060405180830381858888f193505050501580156119e0573d6000803e3d6000fd5b50336012600087815260200190815260200160002060070160006101000a81548173ffffffffffffffffffffffffffffffffffffffff021916908373ffffffffffffffffffffffffffffffffffffffff160217905550336012600087815260200190815260200160002060050160006101000a81548173ffffffffffffffffffffffffffffffffffffffff021916908373ffffffffffffffffffffffffffffffffffffffff16021790555060066012600087815260200190815260200160002060070160146101000a81548160ff02191690836007811115611ac557611ac46129b1565b5b02179055505050505050565b80600115156013600083815260200190815260200160002060009054906101000a900460ff16151514611b39576040517f08c379a0000000000000000000000000000000000000000000000000000000008152600401611b3090612991565b60405180910390fd5b8160036007811115611b4e57611b4d6129b1565b5b6012600083815260200190815260200160002060070160149054906101000a900460ff166007811115611b8457611b836129b1565b5b14611bc4576040517f08c379a0000000000000000000000000000000000000000000000000000000008152600401611bbb90612ff5565b60405180910390fd5b823373ffffffffffffffffffffffffffffffffffffffff166012600083815260200190815260200160002060030160009054906101000a900473ffffffffffffffffffffffffffffffffffffffff1673ffffffffffffffffffffffffffffffffffffffff1614611c69576040517f08c379a0000000000000000000000000000000000000000000000000000000008152600401611c6090612b2a565b60405180910390fd5b60046012600086815260200190815260200160002060070160146101000a81548160ff02191690836007811115611ca357611ca26129b1565b5b021790555050505050565b6000611cbb600683611f93565b9050919050565b600073ffffffffffffffffffffffffffffffffffffffff168173ffffffffffffffffffffffffffffffffffffffff161415611d32576040517f08c379a0000000000000000000000000000000000000000000000000000000008152600401611d2990613061565b60405180910390fd5b611d3c8282611f93565b611d7b576040517f08c379a0000000000000000000000000000000000000000000000000000000008152600401611d72906130cd565b60405180910390fd5b60008260000160008373ffffffffffffffffffffffffffffffffffffffff1673ffffffffffffffffffffffffffffffffffffffff16815260200190815260200160002060006101000a81548160ff0219169083151502179055505050565b600073ffffffffffffffffffffffffffffffffffffffff168173ffffffffffffffffffffffffffffffffffffffff161415611e49576040517f08c379a0000000000000000000000000000000000000000000000000000000008152600401611e4090613061565b60405180910390fd5b611e538282611f93565b15611e93576040517f08c379a0000000000000000000000000000000000000000000000000000000008152600401611e8a90613139565b60405180910390fd5b60018260000160008373ffffffffffffffffffffffffffffffffffffffff1673ffffffffffffffffffffffffffffffffffffffff16815260200190815260200160002060006101000a81548160ff02191690831515021790555060008260010160008373ffffffffffffffffffffffffffffffffffffffff1673ffffffffffffffffffffffffffffffffffffffff168152602001908152602001600020819055505050565b6000611f45600083611f93565b9050919050565b6000611f59600283611f93565b9050919050565b6000611f6a610fda565b611f7261205b565b611f7a6120bd565b905090565b6000611f8c600483611f93565b9050919050565b60008073ffffffffffffffffffffffffffffffffffffffff168273ffffffffffffffffffffffffffffffffffffffff161415612004576040517f08c379a0000000000000000000000000000000000000000000000000000000008152600401611ffb906131a5565b60405180910390fd5b8260000160008373ffffffffffffffffffffffffffffffffffffffff1673ffffffffffffffffffffffffffffffffffffffff16815260200190815260200160002060009054906101000a900460ff16905092915050565b6005600a80549050101561206e57600080fd5b6000600590505b600081146120ba57600c6120876121dc565b90806001815401808255809150506001900390600052602060002001600090919091909150556120b5612385565b612075565b50565b6000806120c86123d6565b905060005b600c805490508110156121d45760106000600c83815481106120f2576120f1612f21565b5b9060005260206000200154815260200190815260200160002060020160009054906101000a900460ff16151582151514156121765760106000600c838154811061213f5761213e612f21565b5b90600052602060002001548152602001908152602001600020600101600081548092919061216c90612b79565b91905055506121c1565b60106000600c838154811061218e5761218d612f21565b5b9060005260206000200154815260200190815260200160002060010160008154809291906121bb90612f7f565b91905055505b80806121cc90612b79565b9150506120cd565b508091505090565b60008060005b600a805490508110156122f45760011515600d6000600a848154811061220b5761220a612f21565b5b906000526020600020906003020160000154815260200190815260200160002060009054906101000a900460ff16151514156122db57600a818154811061225557612254612f21565b5b906000526020600020906003020160010154915060005b828110156122d557600b600a838154811061228a57612289612f21565b5b906000526020600020906003020160000154908060018154018082558091505060019003906000526020600020016000909190919091505580806122cd90612b79565b91505061226c565b506122e0565b6122e1565b5b80806122ec90612b79565b9150506121e2565b5060006123136001600b8054905061230c9190612d34565b6000610b3a565b90506000600d6000600b848154811061232f5761232e612f21565b5b9060005260206000200154815260200190815260200160002060006101000a81548160ff021916908315150217905550600b818154811061237357612372612f21565b5b90600052602060002001549250505090565b6000600b8054905090505b600081146123d357600b8054806123aa576123a9612f50565b5b6001900381819060005260206000200160009055905580806123cb90612f7f565b915050612390565b50565b60006005600c8054905010156123eb57600080fd5b60008060005b600c80549050811015612481576001151560106000600c848154811061241a57612419612f21565b5b9060005260206000200154815260200190815260200160002060020160009054906101000a900460ff161515141561245f57828061245790612b79565b93505061246e565b818061246a90612b79565b9250505b808061247990612b79565b9150506123f1565b50808210159250505090565b604051806060016040528060008152602001600081526020016000151581525090565b8280546124bc906131f4565b90600052602060002090601f0160209004810192826124de5760008555612525565b82601f106124f757805160ff1916838001178555612525565b82800160010185558215612525579182015b82811115612524578251825591602001919060010190612509565b5b5090506125329190612609565b5090565b604051806101400160405280600081526020016000815260200160008152602001600073ffffffffffffffffffffffffffffffffffffffff168152602001600073ffffffffffffffffffffffffffffffffffffffff168152602001600073ffffffffffffffffffffffffffffffffffffffff168152602001600073ffffffffffffffffffffffffffffffffffffffff168152602001600073ffffffffffffffffffffffffffffffffffffffff168152602001600060078111156125fc576125fb6129b1565b5b8152602001606081525090565b5b8082111561262257600081600090555060010161260a565b5090565b6000604051905090565b600080fd5b600080fd5b6000819050919050565b61264d8161263a565b811461265857600080fd5b50565b60008135905061266a81612644565b92915050565b60006020828403121561268657612685612630565b5b60006126948482850161265b565b91505092915050565b600073ffffffffffffffffffffffffffffffffffffffff82169050919050565b60006126c88261269d565b9050919050565b6126d8816126bd565b81146126e357600080fd5b50565b6000813590506126f5816126cf565b92915050565b60006020828403121561271157612710612630565b5b600061271f848285016126e6565b91505092915050565b6000806040838503121561273f5761273e612630565b5b600061274d8582860161265b565b925050602061275e8582860161265b565b9150509250929050565b6127718161263a565b82525050565b600060208201905061278c6000830184612768565b92915050565b600080fd5b600080fd5b6000601f19601f8301169050919050565b7f4e487b7100000000000000000000000000000000000000000000000000000000600052604160045260246000fd5b6127e58261279c565b810181811067ffffffffffffffff82111715612804576128036127ad565b5b80604052505050565b6000612817612626565b905061282382826127dc565b919050565b600067ffffffffffffffff821115612843576128426127ad565b5b61284c8261279c565b9050602081019050919050565b82818337600083830152505050565b600061287b61287684612828565b61280d565b90508281526020810184848401111561289757612896612797565b5b6128a2848285612859565b509392505050565b600082601f8301126128bf576128be612792565b5b81356128cf848260208601612868565b91505092915050565b600080604083850312156128ef576128ee612630565b5b60006128fd8582860161265b565b925050602083013567ffffffffffffffff81111561291e5761291d612635565b5b61292a858286016128aa565b9150509250929050565b600082825260208201905092915050565b7f50726f6475637420646f65736e27742065786973740000000000000000000000600082015250565b600061297b601583612934565b915061298682612945565b602082019050919050565b600060208201905081810360008301526129aa8161296e565b9050919050565b7f4e487b7100000000000000000000000000000000000000000000000000000000600052602160045260246000fd5b7f4e6f7420666f722073616c650000000000000000000000000000000000000000600082015250565b6000612a16600c83612934565b9150612a21826129e0565b602082019050919050565b60006020820190508181036000830152612a4581612a09565b9050919050565b7f54686520616d6f756e74206973206e6f742073756666696369656e7420746f2060008201527f627579207468652070726f647563740000000000000000000000000000000000602082015250565b6000612aa8602f83612934565b9150612ab382612a4c565b604082019050919050565b60006020820190508181036000830152612ad781612a9b565b9050919050565b7f4e6f7420617574686f72697a6564000000000000000000000000000000000000600082015250565b6000612b14600e83612934565b9150612b1f82612ade565b602082019050919050565b60006020820190508181036000830152612b4381612b07565b9050919050565b7f4e487b7100000000000000000000000000000000000000000000000000000000600052601160045260246000fd5b6000612b848261263a565b91507fffffffffffffffffffffffffffffffffffffffffffffffffffffffffffffffff821415612bb757612bb6612b4a565b5b600182019050919050565b7f53616666726f6e206973206e6f74206861727665737465640000000000000000600082015250565b6000612bf8601883612934565b9150612c0382612bc2565b602082019050919050565b60006020820190508181036000830152612c2781612beb565b9050919050565b6000819050919050565b612c49612c448261263a565b612c2e565b82525050565b60008160601b9050919050565b6000612c6782612c4f565b9050919050565b6000612c7982612c5c565b9050919050565b612c91612c8c826126bd565b612c6e565b82525050565b6000612ca38286612c38565b602082019150612cb38285612c80565b601482019150612cc38284612c38565b602082019150819050949350505050565b7f4e487b7100000000000000000000000000000000000000000000000000000000600052601260045260246000fd5b6000612d0e8261263a565b9150612d198361263a565b925082612d2957612d28612cd4565b5b828206905092915050565b6000612d3f8261263a565b9150612d4a8361263a565b925082821015612d5d57612d5c612b4a565b5b828203905092915050565b6000612d738261263a565b9150612d7e8361263a565b9250817fffffffffffffffffffffffffffffffffffffffffffffffffffffffffffffffff0483118215151615612db757612db6612b4a565b5b828202905092915050565b6000612dcd8261263a565b9150612dd88361263a565b925082612de857612de7612cd4565b5b828204905092915050565b6000612dfe8261263a565b9150612e098361263a565b9250827fffffffffffffffffffffffffffffffffffffffffffffffffffffffffffffffff03821115612e3e57612e3d612b4a565b5b828201905092915050565b7f53616666726f6e206973206e6f74206772616465640000000000000000000000600082015250565b6000612e7f601583612934565b9150612e8a82612e49565b602082019050919050565b60006020820190508181036000830152612eae81612e72565b9050919050565b7f53616666726f6e206973206e6f74206472696564000000000000000000000000600082015250565b6000612eeb601483612934565b9150612ef682612eb5565b602082019050919050565b60006020820190508181036000830152612f1a81612ede565b9050919050565b7f4e487b7100000000000000000000000000000000000000000000000000000000600052603260045260246000fd5b7f4e487b7100000000000000000000000000000000000000000000000000000000600052603160045260246000fd5b6000612f8a8261263a565b91506000821415612f9e57612f9d612b4a565b5b600182039050919050565b7f53616666726f6e206973206e6f74207061636b65640000000000000000000000600082015250565b6000612fdf601583612934565b9150612fea82612fa9565b602082019050919050565b6000602082019050818103600083015261300e81612fd2565b9050919050565b7f416464726573732063616e6e6f74206265207a65726f00000000000000000000600082015250565b600061304b601683612934565b915061305682613015565b602082019050919050565b6000602082019050818103600083015261307a8161303e565b9050919050565b7f4d656d62657220646f6573206e6f742065786973740000000000000000000000600082015250565b60006130b7601583612934565b91506130c282613081565b602082019050919050565b600060208201905081810360008301526130e6816130aa565b9050919050565b7f416c726561647920526567697374657265640000000000000000000000000000600082015250565b6000613123601283612934565b915061312e826130ed565b602082019050919050565b6000602082019050818103600083015261315281613116565b9050919050565b7f416464726573732063616e6e6f74206265207a65726f20616464726573730000600082015250565b600061318f601e83612934565b915061319a82613159565b602082019050919050565b600060208201905081810360008301526131be81613182565b9050919050565b7f4e487b7100000000000000000000000000000000000000000000000000000000600052602260045260246000fd5b6000600282049050600182168061320c57607f821691505b602082108114156132205761321f6131c5565b5b5091905056fea26469706673582212203180372aa47a2c6a2644d299337b7c15c3454ecb280508b9ae091d525b2b92c864736f6c634300080a0033",
  "immutableReferences": {},
  "source": "// SPDX-License-Identifier: GPL-3.0\r\npragma solidity >=0.7.0 <0.9.0;\r\n\r\nimport '../Roles/Farmer.sol';\r\nimport '../Roles/Distributor.sol';\r\nimport '../Roles/Retailer.sol';\r\nimport '../Roles/Consumer.sol';\r\nimport '../consensus/verify_random.sol';\r\n\r\ncontract SupplyChain is Farmer, Distributor, Retailer, Consumer, verify_random{\r\n\r\n    enum State{\r\n        Harvested,\r\n        Dried,   \r\n        Graded,\r\n        Packed,\r\n        For_Sale,\r\n        with_distributor,\r\n        with_retailer,\r\n        with_consumer\r\n    }\r\n\r\n    struct Product{\r\n        uint id;\r\n        uint safranal_content;\r\n        uint price;\r\n        address payable farmer;\r\n        address payable distributor;\r\n        address payable retailer;\r\n        address payable consumer;\r\n        address payable Current_owner;\r\n        State state;\r\n        string grade;\r\n    }\r\n\r\n    mapping (uint => Product) product_list;\r\n    mapping (uint => bool) existing;\r\n\r\n    modifier harvested(uint _id){\r\n        require(product_list[_id].state == State.Harvested, \"Saffron is not harvested\");\r\n        _;\r\n    }\r\n    \r\n    modifier dried(uint _id){\r\n        require(product_list[_id].state == State.Dried, \"Saffron is not dried\");\r\n        _;\r\n    }\r\n    \r\n    modifier graded(uint _id){\r\n        require(product_list[_id].state == State.Graded, \"Saffron is not graded\");\r\n        _;\r\n    }\r\n\r\n    modifier packed(uint _id){\r\n        require(product_list[_id].state == State.Packed, \"Saffron is not packed\");\r\n        _;\r\n    }\r\n\r\n    modifier exist(uint _id){\r\n        require(existing[_id] == true, \"Product doesn't exist\");\r\n        _;\r\n    }\r\n\r\n    modifier confirm_farmer(uint _id){\r\n        require(product_list[_id].farmer == msg.sender, \"Not authorized\");\r\n        _;\r\n    }\r\n\r\n    modifier only_distributor(address _add)\r\n    {\r\n        require(isDistributor(_add), \"Not authorized\");\r\n        _;\r\n    }\r\n\r\n    modifier only_retailer(address _add)\r\n    {\r\n        require(isRetailer(_add), \"Not authorized\");\r\n        _;\r\n    }\r\n\r\n    modifier forSale(uint _id){\r\n        require(product_list[_id].state == State.For_Sale, \"Not for sale\");\r\n        _;\r\n    }\r\n    \r\n    modifier paid_enough(uint _price) {\r\n        require(msg.value >= _price, \"The amount is not sufficient to buy the product\");\r\n        _;\r\n    }\r\n\r\n    modifier withDistributor(uint _id)\r\n    {\r\n        require(product_list[_id].state == State.with_distributor, \"Not authorized\");\r\n        _;\r\n    }\r\n\r\n    modifier only_consumer(address _add)\r\n    {\r\n        require(isConsumer(_add), \"Not authorized\");\r\n        _;\r\n    }\r\n\r\n    modifier canBuy(uint _id)\r\n    {\r\n        require(can_buy(_id), \"Item is not FOR SALE\");\r\n        _;\r\n    }\r\n\r\n    function can_buy(uint _id) internal view returns(bool)\r\n    {\r\n        if(product_list[_id].state == State.Packed || product_list[_id].state == State.with_distributor || product_list[_id].state == State.with_retailer)\r\n        {\r\n            return true;\r\n        }\r\n\r\n        return false; \r\n    }\r\n\r\n    function harvest_product(uint _id) public  {\r\n        require(isFarmer(msg.sender));\r\n        Product memory product;\r\n        product.id = _id;\r\n        product.farmer = payable(msg.sender);\r\n        product.Current_owner = product.farmer;\r\n        product.distributor = payable(address(0));\r\n        product.retailer = product.distributor;\r\n        product.consumer = product.distributor;\r\n        product.state = State.Harvested;\r\n        product_list[_id] = product;\r\n        existing[_id] = true;\r\n    }\r\n\r\n    function dry_product(uint _id) exist(_id) harvested(_id) confirm_farmer(_id) public{\r\n        product_list[_id].state = State.Dried;\r\n    }\r\n\r\n    function grading(uint _id, string memory _grade) exist(_id) dried(_id) confirm_farmer(_id) public{\r\n        product_list[_id].grade = _grade;\r\n        product_list[_id].state = State.Graded; \r\n    }\r\n    \r\n    function packing(uint _id) exist(_id) graded(_id) confirm_farmer(_id) public{\r\n        product_list[_id].state = State.Packed;\r\n    }\r\n    \r\n    function for_sale(uint _id) exist(_id) packed(_id) confirm_farmer(_id) public{\r\n        product_list[_id].state = State.For_Sale;\r\n    }\r\n\r\n    function sell_to_distributor(uint _id) exist(_id) forSale(_id) only_distributor(msg.sender) paid_enough(product_list[_id].price) public payable{\r\n        bool confirmation = verify();\r\n        if(confirmation == false)\r\n        product_list[_id].Current_owner.transfer(product_list[_id].price);\r\n        product_list[_id].Current_owner = payable(msg.sender);\r\n        product_list[_id].distributor = payable(msg.sender);\r\n        product_list[_id].state = State.with_distributor;\r\n    }\r\n\r\n    function sell_to_retialer(uint _id) exist(_id) paid_enough(product_list[_id].price) only_retailer(msg.sender) withDistributor(_id) public payable\r\n    {\r\n        product_list[_id].Current_owner.transfer(product_list[_id].price);\r\n        product_list[_id].Current_owner = payable(msg.sender);\r\n        product_list[_id].retailer = payable(msg.sender);\r\n        product_list[_id].state = State.with_retailer;\r\n    }\r\n\r\n    function sell_to_consumer(uint _id) exist(_id) forSale(_id) paid_enough(product_list[_id].price) only_consumer(msg.sender)  public payable\r\n    {\r\n        product_list[_id].Current_owner.transfer(product_list[_id].price);\r\n        product_list[_id].Current_owner = payable(msg.sender);\r\n        product_list[_id].consumer = payable(msg.sender);\r\n        product_list[_id].state = State.with_consumer;\r\n    }\r\n\r\n}",
  "sourcePath": "F:\\project\\Saffron_Final_year\\contracts\\SupplyChain\\SupplyChain.sol",
  "compiler": {
    "name": "solc",
    "version": "0.8.10+commit.fc410830.Emscripten.clang"
  },
  "schemaVersion": "3.3.4",
  "updatedAt": "2022-05-19T12:22:06.205Z",
  "devdoc": {
    "kind": "dev",
    "methods": {},
    "version": 1
  },
  "userdoc": {
    "kind": "user",
    "methods": {},
    "version": 1
  }
}