{
  "contractName": "SupplyChain",
  "abi": [
    {
      "inputs": [
        {
          "internalType": "address",
          "name": "_add",
          "type": "address"
        }
      ],
      "name": "addConsumer",
      "outputs": [],
      "stateMutability": "nonpayable",
      "type": "function"
    },
    {
      "inputs": [
        {
          "internalType": "address",
          "name": "_add",
          "type": "address"
        }
      ],
      "name": "addDistributor",
      "outputs": [],
      "stateMutability": "nonpayable",
      "type": "function"
    },
    {
      "inputs": [
        {
          "internalType": "address",
          "name": "_add",
          "type": "address"
        }
      ],
      "name": "addRetailer",
      "outputs": [],
      "stateMutability": "nonpayable",
      "type": "function"
    },
    {
      "inputs": [
        {
          "internalType": "address",
          "name": "_add",
          "type": "address"
        }
      ],
      "name": "removeConsumer",
      "outputs": [],
      "stateMutability": "nonpayable",
      "type": "function"
    },
    {
      "inputs": [
        {
          "internalType": "address",
          "name": "_add",
          "type": "address"
        }
      ],
      "name": "removeDistributor",
      "outputs": [],
      "stateMutability": "nonpayable",
      "type": "function"
    },
    {
      "inputs": [
        {
          "internalType": "address",
          "name": "_add",
          "type": "address"
        }
      ],
      "name": "removeRetailer",
      "outputs": [],
      "stateMutability": "nonpayable",
      "type": "function"
    },
    {
      "inputs": [
        {
          "internalType": "uint256",
          "name": "_id",
          "type": "uint256"
        }
      ],
      "name": "harvest_product",
      "outputs": [],
      "stateMutability": "nonpayable",
      "type": "function"
    },
    {
      "inputs": [
        {
          "internalType": "uint256",
          "name": "_id",
          "type": "uint256"
        }
      ],
      "name": "dry_product",
      "outputs": [],
      "stateMutability": "nonpayable",
      "type": "function"
    },
    {
      "inputs": [
        {
          "internalType": "uint256",
          "name": "_id",
          "type": "uint256"
        }
      ],
      "name": "grading",
      "outputs": [],
      "stateMutability": "nonpayable",
      "type": "function"
    },
    {
      "inputs": [
        {
          "internalType": "uint256",
          "name": "_id",
          "type": "uint256"
        }
      ],
      "name": "packing",
      "outputs": [],
      "stateMutability": "nonpayable",
      "type": "function"
    },
    {
      "inputs": [
        {
          "internalType": "uint256",
          "name": "_id",
          "type": "uint256"
        }
      ],
      "name": "for_sale",
      "outputs": [],
      "stateMutability": "nonpayable",
      "type": "function"
    },
    {
      "inputs": [
        {
          "internalType": "uint256",
          "name": "_id",
          "type": "uint256"
        }
      ],
      "name": "sell_to_distributor",
      "outputs": [],
      "stateMutability": "payable",
      "type": "function"
    },
    {
      "inputs": [
        {
          "internalType": "uint256",
          "name": "_id",
          "type": "uint256"
        }
      ],
      "name": "sell_to_retialer",
      "outputs": [],
      "stateMutability": "payable",
      "type": "function"
    },
    {
      "inputs": [
        {
          "internalType": "uint256",
          "name": "_id",
          "type": "uint256"
        }
      ],
      "name": "sell_to_consumer",
      "outputs": [],
      "stateMutability": "payable",
      "type": "function"
    }
  ],
  "bytecode": "0x608060405234801561001057600080fd5b506126e7806100206000396000f3fe6080604052600436106100dd5760003560e01c80637d0703f41161007f578063e2f8678a11610059578063e2f8678a1461026f578063eefbb33f14610298578063f02e94ea146102b4578063fb25b49a146102d0576100dd565b80637d0703f4146101f45780638ec4f5051461021d5780639a5c1ef114610246576100dd565b806357c1f9e2116100bb57806357c1f9e21461015057806370099ec8146101795780637250e224146101a257806376c726ce146101cb576100dd565b80630652bebf146100e25780630e27e3df146100fe578063112940f914610127575b600080fd5b6100fc60048036038101906100f79190612022565b6102f9565b005b34801561010a57600080fd5b50610125600480360381019061012091906120ad565b610612565b005b34801561013357600080fd5b5061014e600480360381019061014991906120ad565b610620565b005b34801561015c57600080fd5b50610177600480360381019061017291906120ad565b61062e565b005b34801561018557600080fd5b506101a0600480360381019061019b91906120ad565b61063c565b005b3480156101ae57600080fd5b506101c960048036038101906101c491906120ad565b61064a565b005b3480156101d757600080fd5b506101f260048036038101906101ed9190612022565b610658565b005b34801561020057600080fd5b5061021b60048036038101906102169190612022565b610bc2565b005b34801561022957600080fd5b50610244600480360381019061023f91906120ad565b610d9f565b005b34801561025257600080fd5b5061026d60048036038101906102689190612022565b610dad565b005b34801561027b57600080fd5b5061029660048036038101906102919190612022565b610f8a565b005b6102b260048036038101906102ad9190612022565b61131c565b005b6102ce60048036038101906102c99190612022565b611635565b005b3480156102dc57600080fd5b506102f760048036038101906102f29190612022565b61194e565b005b80600115156005600083815260200190815260200160002060009054906101000a900460ff16151514610361576040517f08c379a000000000000000000000000000000000000000000000000000000000815260040161035890612137565b60405180910390fd5b816004600781111561037657610375612157565b5b6004600083815260200190815260200160002060070160149054906101000a900460ff1660078111156103ac576103ab612157565b5b146103ec576040517f08c379a00000000000000000000000000000000000000000000000000000000081526004016103e3906121d2565b60405180910390fd5b600460008481526020019081526020016000206002015480341015610446576040517f08c379a000000000000000000000000000000000000000000000000000000000815260040161043d90612264565b60405180910390fd5b3361045081611b2a565b61048f576040517f08c379a0000000000000000000000000000000000000000000000000000000008152600401610486906122d0565b60405180910390fd5b6004600086815260200190815260200160002060070160009054906101000a900473ffffffffffffffffffffffffffffffffffffffff1673ffffffffffffffffffffffffffffffffffffffff166108fc60046000888152602001908152602001600020600201549081150290604051600060405180830381858888f19350505050158015610521573d6000803e3d6000fd5b50336004600087815260200190815260200160002060070160006101000a81548173ffffffffffffffffffffffffffffffffffffffff021916908373ffffffffffffffffffffffffffffffffffffffff160217905550336004600087815260200190815260200160002060060160006101000a81548173ffffffffffffffffffffffffffffffffffffffff021916908373ffffffffffffffffffffffffffffffffffffffff16021790555060076004600087815260200190815260200160002060070160146101000a81548160ff0219169083600781111561060657610605612157565b5b02179055505050505050565b61061d600382611b3e565b50565b61062b600382611c55565b50565b610639600182611b3e565b50565b610647600282611b3e565b50565b610655600182611c55565b50565b80600115156005600083815260200190815260200160002060009054906101000a900460ff161515146106c0576040517f08c379a00000000000000000000000000000000000000000000000000000000081526004016106b790612137565b60405180910390fd5b81600160078111156106d5576106d4612157565b5b6004600083815260200190815260200160002060070160149054906101000a900460ff16600781111561070b5761070a612157565b5b1461074b576040517f08c379a00000000000000000000000000000000000000000000000000000000081526004016107429061233c565b60405180910390fd5b823373ffffffffffffffffffffffffffffffffffffffff166004600083815260200190815260200160002060030160009054906101000a900473ffffffffffffffffffffffffffffffffffffffff1673ffffffffffffffffffffffffffffffffffffffff16146107f0576040517f08c379a00000000000000000000000000000000000000000000000000000000081526004016107e7906122d0565b60405180910390fd5b605060046000868152602001908152602001600020600101541015801561082e57506064600460008681526020019081526020016000206001015411155b156108b4576040518060400160405280600181526020017f4100000000000000000000000000000000000000000000000000000000000000815250600460008681526020019081526020016000206008019080519060200190610892929190611e71565b5060646004600086815260200190815260200160002060020181905550610b7d565b603c6004600086815260200190815260200160002060010154101580156108f1575060506004600086815260200190815260200160002060010154105b15610977576040518060400160405280600181526020017f4200000000000000000000000000000000000000000000000000000000000000815250600460008681526020019081526020016000206008019080519060200190610955929190611e71565b5060506004600086815260200190815260200160002060020181905550610b7c565b60286004600086815260200190815260200160002060010154101580156109b45750603c6004600086815260200190815260200160002060010154105b15610a3a576040518060400160405280600181526020017f4300000000000000000000000000000000000000000000000000000000000000815250600460008681526020019081526020016000206008019080519060200190610a18929190611e71565b50603c6004600086815260200190815260200160002060020181905550610b7b565b6014600460008681526020019081526020016000206001015410158015610a77575060286004600086815260200190815260200160002060010154105b15610afd576040518060400160405280600181526020017f4400000000000000000000000000000000000000000000000000000000000000815250600460008681526020019081526020016000206008019080519060200190610adb929190611e71565b5060286004600086815260200190815260200160002060020181905550610b7a565b6040518060400160405280600181526020017f4500000000000000000000000000000000000000000000000000000000000000815250600460008681526020019081526020016000206008019080519060200190610b5c929190611e71565b50601460046000868152602001908152602001600020600201819055505b5b5b5b60026004600086815260200190815260200160002060070160146101000a81548160ff02191690836007811115610bb757610bb6612157565b5b021790555050505050565b80600115156005600083815260200190815260200160002060009054906101000a900460ff16151514610c2a576040517f08c379a0000000000000000000000000000000000000000000000000000000008152600401610c2190612137565b60405180910390fd5b8160006007811115610c3f57610c3e612157565b5b6004600083815260200190815260200160002060070160149054906101000a900460ff166007811115610c7557610c74612157565b5b14610cb5576040517f08c379a0000000000000000000000000000000000000000000000000000000008152600401610cac906123a8565b60405180910390fd5b823373ffffffffffffffffffffffffffffffffffffffff166004600083815260200190815260200160002060030160009054906101000a900473ffffffffffffffffffffffffffffffffffffffff1673ffffffffffffffffffffffffffffffffffffffff1614610d5a576040517f08c379a0000000000000000000000000000000000000000000000000000000008152600401610d51906122d0565b60405180910390fd5b60016004600086815260200190815260200160002060070160146101000a81548160ff02191690836007811115610d9457610d93612157565b5b021790555050505050565b610daa600282611c55565b50565b80600115156005600083815260200190815260200160002060009054906101000a900460ff16151514610e15576040517f08c379a0000000000000000000000000000000000000000000000000000000008152600401610e0c90612137565b60405180910390fd5b8160026007811115610e2a57610e29612157565b5b6004600083815260200190815260200160002060070160149054906101000a900460ff166007811115610e6057610e5f612157565b5b14610ea0576040517f08c379a0000000000000000000000000000000000000000000000000000000008152600401610e9790612414565b60405180910390fd5b823373ffffffffffffffffffffffffffffffffffffffff166004600083815260200190815260200160002060030160009054906101000a900473ffffffffffffffffffffffffffffffffffffffff1673ffffffffffffffffffffffffffffffffffffffff1614610f45576040517f08c379a0000000000000000000000000000000000000000000000000000000008152600401610f3c906122d0565b60405180910390fd5b60036004600086815260200190815260200160002060070160146101000a81548160ff02191690836007811115610f7f57610f7e612157565b5b021790555050505050565b610f9333611d6d565b610f9c57600080fd5b610fa4611ef7565b8181600001818152505033816060019073ffffffffffffffffffffffffffffffffffffffff16908173ffffffffffffffffffffffffffffffffffffffff168152505080606001518160e0019073ffffffffffffffffffffffffffffffffffffffff16908173ffffffffffffffffffffffffffffffffffffffff16815250506000816080019073ffffffffffffffffffffffffffffffffffffffff16908173ffffffffffffffffffffffffffffffffffffffff168152505080608001518160a0019073ffffffffffffffffffffffffffffffffffffffff16908173ffffffffffffffffffffffffffffffffffffffff168152505080608001518160c0019073ffffffffffffffffffffffffffffffffffffffff16908173ffffffffffffffffffffffffffffffffffffffff1681525050600081610100019060078111156110ed576110ec612157565b5b9081600781111561110157611100612157565b5b81525050806004600084815260200190815260200160002060008201518160000155602082015181600101556040820151816002015560608201518160030160006101000a81548173ffffffffffffffffffffffffffffffffffffffff021916908373ffffffffffffffffffffffffffffffffffffffff16021790555060808201518160040160006101000a81548173ffffffffffffffffffffffffffffffffffffffff021916908373ffffffffffffffffffffffffffffffffffffffff16021790555060a08201518160050160006101000a81548173ffffffffffffffffffffffffffffffffffffffff021916908373ffffffffffffffffffffffffffffffffffffffff16021790555060c08201518160060160006101000a81548173ffffffffffffffffffffffffffffffffffffffff021916908373ffffffffffffffffffffffffffffffffffffffff16021790555060e08201518160070160006101000a81548173ffffffffffffffffffffffffffffffffffffffff021916908373ffffffffffffffffffffffffffffffffffffffff1602179055506101008201518160070160146101000a81548160ff021916908360078111156112c6576112c5612157565b5b02179055506101208201518160080190805190602001906112e8929190611e71565b5090505060016005600084815260200190815260200160002060006101000a81548160ff0219169083151502179055505050565b80600115156005600083815260200190815260200160002060009054906101000a900460ff16151514611384576040517f08c379a000000000000000000000000000000000000000000000000000000000815260040161137b90612137565b60405180910390fd5b816004600781111561139957611398612157565b5b6004600083815260200190815260200160002060070160149054906101000a900460ff1660078111156113cf576113ce612157565b5b1461140f576040517f08c379a0000000000000000000000000000000000000000000000000000000008152600401611406906121d2565b60405180910390fd5b3361141981611d81565b611458576040517f08c379a000000000000000000000000000000000000000000000000000000000815260040161144f906122d0565b60405180910390fd5b6004600085815260200190815260200160002060020154803410156114b2576040517f08c379a00000000000000000000000000000000000000000000000000000000081526004016114a990612264565b60405180910390fd5b6004600086815260200190815260200160002060070160009054906101000a900473ffffffffffffffffffffffffffffffffffffffff1673ffffffffffffffffffffffffffffffffffffffff166108fc60046000888152602001908152602001600020600201549081150290604051600060405180830381858888f19350505050158015611544573d6000803e3d6000fd5b50336004600087815260200190815260200160002060070160006101000a81548173ffffffffffffffffffffffffffffffffffffffff021916908373ffffffffffffffffffffffffffffffffffffffff160217905550336004600087815260200190815260200160002060040160006101000a81548173ffffffffffffffffffffffffffffffffffffffff021916908373ffffffffffffffffffffffffffffffffffffffff16021790555060056004600087815260200190815260200160002060070160146101000a81548160ff0219169083600781111561162957611628612157565b5b02179055505050505050565b80600115156005600083815260200190815260200160002060009054906101000a900460ff1615151461169d576040517f08c379a000000000000000000000000000000000000000000000000000000000815260040161169490612137565b60405180910390fd5b6004600083815260200190815260200160002060020154803410156116f7576040517f08c379a00000000000000000000000000000000000000000000000000000000081526004016116ee90612264565b60405180910390fd5b3361170181611d95565b611740576040517f08c379a0000000000000000000000000000000000000000000000000000000008152600401611737906122d0565b60405180910390fd5b836005600781111561175557611754612157565b5b6004600083815260200190815260200160002060070160149054906101000a900460ff16600781111561178b5761178a612157565b5b146117cb576040517f08c379a00000000000000000000000000000000000000000000000000000000081526004016117c2906122d0565b60405180910390fd5b6004600086815260200190815260200160002060070160009054906101000a900473ffffffffffffffffffffffffffffffffffffffff1673ffffffffffffffffffffffffffffffffffffffff166108fc60046000888152602001908152602001600020600201549081150290604051600060405180830381858888f1935050505015801561185d573d6000803e3d6000fd5b50336004600087815260200190815260200160002060070160006101000a81548173ffffffffffffffffffffffffffffffffffffffff021916908373ffffffffffffffffffffffffffffffffffffffff160217905550336004600087815260200190815260200160002060050160006101000a81548173ffffffffffffffffffffffffffffffffffffffff021916908373ffffffffffffffffffffffffffffffffffffffff16021790555060066004600087815260200190815260200160002060070160146101000a81548160ff0219169083600781111561194257611941612157565b5b02179055505050505050565b80600115156005600083815260200190815260200160002060009054906101000a900460ff161515146119b6576040517f08c379a00000000000000000000000000000000000000000000000000000000081526004016119ad90612137565b60405180910390fd5b81600360078111156119cb576119ca612157565b5b6004600083815260200190815260200160002060070160149054906101000a900460ff166007811115611a0157611a00612157565b5b14611a41576040517f08c379a0000000000000000000000000000000000000000000000000000000008152600401611a3890612480565b60405180910390fd5b823373ffffffffffffffffffffffffffffffffffffffff166004600083815260200190815260200160002060030160009054906101000a900473ffffffffffffffffffffffffffffffffffffffff1673ffffffffffffffffffffffffffffffffffffffff1614611ae6576040517f08c379a0000000000000000000000000000000000000000000000000000000008152600401611add906122d0565b60405180910390fd5b600480600086815260200190815260200160002060070160146101000a81548160ff02191690836007811115611b1f57611b1e612157565b5b021790555050505050565b6000611b37600383611da9565b9050919050565b600073ffffffffffffffffffffffffffffffffffffffff168173ffffffffffffffffffffffffffffffffffffffff161415611bae576040517f08c379a0000000000000000000000000000000000000000000000000000000008152600401611ba5906124ec565b60405180910390fd5b611bb88282611da9565b611bf7576040517f08c379a0000000000000000000000000000000000000000000000000000000008152600401611bee90612558565b60405180910390fd5b60008260000160008373ffffffffffffffffffffffffffffffffffffffff1673ffffffffffffffffffffffffffffffffffffffff16815260200190815260200160002060006101000a81548160ff0219169083151502179055505050565b600073ffffffffffffffffffffffffffffffffffffffff168173ffffffffffffffffffffffffffffffffffffffff161415611cc5576040517f08c379a0000000000000000000000000000000000000000000000000000000008152600401611cbc906124ec565b60405180910390fd5b611ccf8282611da9565b15611d0f576040517f08c379a0000000000000000000000000000000000000000000000000000000008152600401611d06906125c4565b60405180910390fd5b60018260000160008373ffffffffffffffffffffffffffffffffffffffff1673ffffffffffffffffffffffffffffffffffffffff16815260200190815260200160002060006101000a81548160ff0219169083151502179055505050565b6000611d7a600083611da9565b9050919050565b6000611d8e600183611da9565b9050919050565b6000611da2600283611da9565b9050919050565b60008073ffffffffffffffffffffffffffffffffffffffff168273ffffffffffffffffffffffffffffffffffffffff161415611e1a576040517f08c379a0000000000000000000000000000000000000000000000000000000008152600401611e1190612630565b60405180910390fd5b8260000160008373ffffffffffffffffffffffffffffffffffffffff1673ffffffffffffffffffffffffffffffffffffffff16815260200190815260200160002060009054906101000a900460ff16905092915050565b828054611e7d9061267f565b90600052602060002090601f016020900481019282611e9f5760008555611ee6565b82601f10611eb857805160ff1916838001178555611ee6565b82800160010185558215611ee6579182015b82811115611ee5578251825591602001919060010190611eca565b5b509050611ef39190611fca565b5090565b604051806101400160405280600081526020016000815260200160008152602001600073ffffffffffffffffffffffffffffffffffffffff168152602001600073ffffffffffffffffffffffffffffffffffffffff168152602001600073ffffffffffffffffffffffffffffffffffffffff168152602001600073ffffffffffffffffffffffffffffffffffffffff168152602001600073ffffffffffffffffffffffffffffffffffffffff16815260200160006007811115611fbd57611fbc612157565b5b8152602001606081525090565b5b80821115611fe3576000816000905550600101611fcb565b5090565b600080fd5b6000819050919050565b611fff81611fec565b811461200a57600080fd5b50565b60008135905061201c81611ff6565b92915050565b60006020828403121561203857612037611fe7565b5b60006120468482850161200d565b91505092915050565b600073ffffffffffffffffffffffffffffffffffffffff82169050919050565b600061207a8261204f565b9050919050565b61208a8161206f565b811461209557600080fd5b50565b6000813590506120a781612081565b92915050565b6000602082840312156120c3576120c2611fe7565b5b60006120d184828501612098565b91505092915050565b600082825260208201905092915050565b7f50726f6475637420646f65736e27742065786973740000000000000000000000600082015250565b60006121216015836120da565b915061212c826120eb565b602082019050919050565b6000602082019050818103600083015261215081612114565b9050919050565b7f4e487b7100000000000000000000000000000000000000000000000000000000600052602160045260246000fd5b7f4e6f7420666f722073616c650000000000000000000000000000000000000000600082015250565b60006121bc600c836120da565b91506121c782612186565b602082019050919050565b600060208201905081810360008301526121eb816121af565b9050919050565b7f54686520616d6f756e74206973206e6f742073756666696369656e7420746f2060008201527f627579207468652070726f647563740000000000000000000000000000000000602082015250565b600061224e602f836120da565b9150612259826121f2565b604082019050919050565b6000602082019050818103600083015261227d81612241565b9050919050565b7f4e6f7420617574686f72697a6564000000000000000000000000000000000000600082015250565b60006122ba600e836120da565b91506122c582612284565b602082019050919050565b600060208201905081810360008301526122e9816122ad565b9050919050565b7f53616666726f6e206973206e6f74206472696564000000000000000000000000600082015250565b60006123266014836120da565b9150612331826122f0565b602082019050919050565b6000602082019050818103600083015261235581612319565b9050919050565b7f53616666726f6e206973206e6f74206861727665737465640000000000000000600082015250565b60006123926018836120da565b915061239d8261235c565b602082019050919050565b600060208201905081810360008301526123c181612385565b9050919050565b7f53616666726f6e206973206e6f74206772616465640000000000000000000000600082015250565b60006123fe6015836120da565b9150612409826123c8565b602082019050919050565b6000602082019050818103600083015261242d816123f1565b9050919050565b7f53616666726f6e206973206e6f74207061636b65640000000000000000000000600082015250565b600061246a6015836120da565b915061247582612434565b602082019050919050565b600060208201905081810360008301526124998161245d565b9050919050565b7f416464726573732063616e6e6f74206265207a65726f00000000000000000000600082015250565b60006124d66016836120da565b91506124e1826124a0565b602082019050919050565b60006020820190508181036000830152612505816124c9565b9050919050565b7f4d656d62657220646f6573206e6f742065786973740000000000000000000000600082015250565b60006125426015836120da565b915061254d8261250c565b602082019050919050565b6000602082019050818103600083015261257181612535565b9050919050565b7f416c726561647920526567697374657265640000000000000000000000000000600082015250565b60006125ae6012836120da565b91506125b982612578565b602082019050919050565b600060208201905081810360008301526125dd816125a1565b9050919050565b7f416464726573732063616e6e6f74206265207a65726f20616464726573730000600082015250565b600061261a601e836120da565b9150612625826125e4565b602082019050919050565b600060208201905081810360008301526126498161260d565b9050919050565b7f4e487b7100000000000000000000000000000000000000000000000000000000600052602260045260246000fd5b6000600282049050600182168061269757607f821691505b602082108114156126ab576126aa612650565b5b5091905056fea26469706673582212208eed38c3f2f0d3e993dfbf913ed7916b873490f36d841800825cb534ba8615f164736f6c634300080a0033",
  "immutableReferences": {},
  "source": "// SPDX-License-Identifier: GPL-3.0\r\npragma solidity >=0.7.0 <0.9.0;\r\n\r\nimport '../Roles/Farmer.sol';\r\nimport '../Roles/Distributor.sol';\r\nimport '../Roles/Retailer.sol';\r\nimport '../Roles/Consumer.sol';\r\n\r\ncontract SupplyChain is Farmer, Distributor, Retailer, Consumer{\r\n\r\n    enum State{\r\n        Harvested,\r\n        Dried,   \r\n        Graded,\r\n        Packed,\r\n        For_Sale,\r\n        with_distributor,\r\n        with_retailer,\r\n        with_consumer\r\n    }\r\n\r\n    struct Product{\r\n        uint id;\r\n        uint safranal_content;\r\n        uint price;\r\n        address payable farmer;\r\n        address payable distributor;\r\n        address payable retailer;\r\n        address payable consumer;\r\n        address payable Current_owner;\r\n        State state;\r\n        string grade;\r\n    }\r\n\r\n    mapping (uint => Product) product_list;\r\n    mapping (uint => bool) existing;\r\n\r\n    modifier harvested(uint _id){\r\n        require(product_list[_id].state == State.Harvested, \"Saffron is not harvested\");\r\n        _;\r\n    }\r\n    \r\n    modifier dried(uint _id){\r\n        require(product_list[_id].state == State.Dried, \"Saffron is not dried\");\r\n        _;\r\n    }\r\n    \r\n    modifier graded(uint _id){\r\n        require(product_list[_id].state == State.Graded, \"Saffron is not graded\");\r\n        _;\r\n    }\r\n\r\n    modifier packed(uint _id){\r\n        require(product_list[_id].state == State.Packed, \"Saffron is not packed\");\r\n        _;\r\n    }\r\n\r\n    modifier exist(uint _id){\r\n        require(existing[_id] == true, \"Product doesn't exist\");\r\n        _;\r\n    }\r\n\r\n    modifier confirm_farmer(uint _id){\r\n        require(product_list[_id].farmer == msg.sender, \"Not authorized\");\r\n        _;\r\n    }\r\n\r\n    modifier only_distributor(address _add)\r\n    {\r\n        require(isDistributor(_add), \"Not authorized\");\r\n        _;\r\n    }\r\n\r\n    modifier only_retailer(address _add)\r\n    {\r\n        require(isRetailer(_add), \"Not authorized\");\r\n        _;\r\n    }\r\n\r\n    modifier forSale(uint _id){\r\n        require(product_list[_id].state == State.For_Sale, \"Not for sale\");\r\n        _;\r\n    }\r\n    \r\n    modifier paid_enough(uint _price) {\r\n        require(msg.value >= _price, \"The amount is not sufficient to buy the product\");\r\n        _;\r\n    }\r\n\r\n    modifier withDistributor(uint _id)\r\n    {\r\n        require(product_list[_id].state == State.with_distributor, \"Not authorized\");\r\n        _;\r\n    }\r\n\r\n    modifier only_consumer(address _add)\r\n    {\r\n        require(isConsumer(_add), \"Not authorized\");\r\n        _;\r\n    }\r\n\r\n    modifier canBuy(uint _id)\r\n    {\r\n        require(can_buy(_id), \"Item is not FOR SALE\");\r\n        _;\r\n    }\r\n\r\n    function can_buy(uint _id) internal view returns(bool)\r\n    {\r\n        if(product_list[_id].state == State.Packed || product_list[_id].state == State.with_distributor || product_list[_id].state == State.with_retailer)\r\n        {\r\n            return true;\r\n        }\r\n\r\n        return false; \r\n    }\r\n\r\n    function harvest_product(uint _id) public  {\r\n        require(isFarmer(msg.sender));\r\n        Product memory product;\r\n        product.id = _id;\r\n        product.farmer = payable(msg.sender);\r\n        product.Current_owner = product.farmer;\r\n        product.distributor = payable(address(0));\r\n        product.retailer = product.distributor;\r\n        product.consumer = product.distributor;\r\n        product.state = State.Harvested;\r\n        product_list[_id] = product;\r\n        existing[_id] = true;\r\n    }\r\n\r\n    function dry_product(uint _id) exist(_id) harvested(_id) confirm_farmer(_id) public{\r\n        product_list[_id].state = State.Dried;\r\n    }\r\n\r\n    function grading(uint _id) exist(_id) dried(_id) confirm_farmer(_id) public{\r\n        if(product_list[_id].safranal_content >= 80 && product_list[_id].safranal_content <=100)\r\n        {\r\n            product_list[_id].grade = \"A\";\r\n            product_list[_id].price = 100;\r\n        }\r\n        else if(product_list[_id].safranal_content >= 60 && product_list[_id].safranal_content <80)\r\n        {\r\n            product_list[_id].grade = \"B\";\r\n            product_list[_id].price = 80;\r\n        }\r\n        else if(product_list[_id].safranal_content >= 40 && product_list[_id].safranal_content <60)\r\n        {\r\n            product_list[_id].grade = \"C\";\r\n            product_list[_id].price = 60;\r\n        }\r\n        else if(product_list[_id].safranal_content >= 20 && product_list[_id].safranal_content <40)\r\n        {\r\n            product_list[_id].grade = \"D\";\r\n            product_list[_id].price = 40;\r\n        }\r\n        else\r\n        {\r\n            product_list[_id].grade = \"E\";\r\n            product_list[_id].price = 20;\r\n        }\r\n        product_list[_id].state = State.Graded; \r\n    }\r\n    \r\n    function packing(uint _id) exist(_id) graded(_id) confirm_farmer(_id) public{\r\n        product_list[_id].state = State.Packed;\r\n    }\r\n    \r\n    function for_sale(uint _id) exist(_id) packed(_id) confirm_farmer(_id) public{\r\n        product_list[_id].state = State.For_Sale;\r\n    }\r\n\r\n    function sell_to_distributor(uint _id) exist(_id) forSale(_id) only_distributor(msg.sender) paid_enough(product_list[_id].price) public payable{\r\n        product_list[_id].Current_owner.transfer(product_list[_id].price);\r\n        product_list[_id].Current_owner = payable(msg.sender);\r\n        product_list[_id].distributor = payable(msg.sender);\r\n        product_list[_id].state = State.with_distributor;\r\n    }\r\n\r\n    function sell_to_retialer(uint _id) exist(_id) paid_enough(product_list[_id].price) only_retailer(msg.sender) withDistributor(_id) public payable\r\n    {\r\n        product_list[_id].Current_owner.transfer(product_list[_id].price);\r\n        product_list[_id].Current_owner = payable(msg.sender);\r\n        product_list[_id].retailer = payable(msg.sender);\r\n        product_list[_id].state = State.with_retailer;\r\n    }\r\n\r\n     function sell_to_consumer(uint _id) exist(_id) forSale(_id) paid_enough(product_list[_id].price) only_consumer(msg.sender)  public payable\r\n    {\r\n        product_list[_id].Current_owner.transfer(product_list[_id].price);\r\n        product_list[_id].Current_owner = payable(msg.sender);\r\n        product_list[_id].consumer = payable(msg.sender);\r\n        product_list[_id].state = State.with_consumer;\r\n    }\r\n\r\n}",
  "sourcePath": "F:\\project\\Saffron_Final_year\\contracts\\SupplyChain\\SupplyChain.sol",
  "compiler": {
    "name": "solc",
    "version": "0.8.10+commit.fc410830.Emscripten.clang"
  },
  "schemaVersion": "3.4.4",
  "updatedAt": "2022-03-21T11:44:01.251Z",
  "devdoc": {
    "kind": "dev",
    "methods": {},
    "version": 1
  },
  "userdoc": {
    "kind": "user",
    "methods": {},
    "version": 1
  }
}