{
  "contractName": "verify_random",
  "abi": [
    {
      "inputs": [],
      "name": "random_num",
      "outputs": [
        {
          "internalType": "uint256",
          "name": "",
          "type": "uint256"
        }
      ],
      "stateMutability": "view",
      "type": "function"
    },
    {
      "inputs": [],
      "name": "reset",
      "outputs": [],
      "stateMutability": "nonpayable",
      "type": "function"
    },
    {
      "inputs": [],
      "name": "ver_register",
      "outputs": [],
      "stateMutability": "nonpayable",
      "type": "function"
    },
    {
      "inputs": [
        {
          "internalType": "uint256",
          "name": "num_max",
          "type": "uint256"
        },
        {
          "internalType": "uint256",
          "name": "num_min",
          "type": "uint256"
        }
      ],
      "name": "generate_random",
      "outputs": [
        {
          "internalType": "uint256",
          "name": "",
          "type": "uint256"
        }
      ],
      "stateMutability": "nonpayable",
      "type": "function"
    }
  ],
  "bytecode": "0x608060405260008055600060065534801561001957600080fd5b50610904806100296000396000f3fe608060405234801561001057600080fd5b506004361061004c5760003560e01c8063793a886614610051578063870883551461005b578063d826f88f1461008b578063edde834914610095575b600080fd5b6100596100b3565b005b61007560048036038101906100709190610517565b6102f6565b6040516100829190610566565b60405180910390f35b6100936103a1565b005b61009d6104b3565b6040516100aa9190610566565b60405180910390f35b60001515600760003373ffffffffffffffffffffffffffffffffffffffff1673ffffffffffffffffffffffffffffffffffffffff16815260200190815260200160002060009054906101000a900460ff1615151461011057600080fd5b6001600760003373ffffffffffffffffffffffffffffffffffffffff1673ffffffffffffffffffffffffffffffffffffffff16815260200190815260200160002060006101000a81548160ff0219169083151502179055506101706104b9565b60066000815480929190610183906105b0565b919050558160000181815250506001816020018181525050806008600083600001518152602001908152602001600020600082015181600001556020820151816001015560408201518160020160006101000a81548160ff0219169083151502179055509050506001600560008360000151815260200190815260200160002060006101000a81548160ff0219169083151502179055506002819080600181540180825580915050600190039060005260206000209060030201600090919091909150600082015181600001556020820151816001015560408201518160020160006101000a81548160ff021916908315150217905550505080600960003373ffffffffffffffffffffffffffffffffffffffff1673ffffffffffffffffffffffffffffffffffffffff168152602001908152602001600020600082015181600001556020820151816001015560408201518160020160006101000a81548160ff02191690831515021790555090505050565b600080600081548092919061030a906105b0565b91905055506064423360005460405160200161032893929190610694565b6040516020818303038152906040528051906020012060001c61034b9190610700565b600181905550600060649050600083856103659190610731565b905083828260006001546103799190610731565b6103839190610765565b61038d91906107bf565b61039791906107f0565b9250505092915050565b60005b60028054905081101561041557600160056000600284815481106103cb576103ca610846565b5b906000526020600020906003020160000154815260200190815260200160002060006101000a81548160ff021916908315150217905550808061040d906105b0565b9150506103a4565b50600060038054905090505b6000811461046457600380548061043b5761043a610875565b5b60019003818190600052602060002001600090559055808061045c906108a4565b915050610421565b60048054905090505b600081146104b057600480548061048757610486610875565b5b6001900381819060005260206000200160009055905580806104a8906108a4565b91505061046d565b50565b60015481565b604051806060016040528060008152602001600081526020016000151581525090565b600080fd5b6000819050919050565b6104f4816104e1565b81146104ff57600080fd5b50565b600081359050610511816104eb565b92915050565b6000806040838503121561052e5761052d6104dc565b5b600061053c85828601610502565b925050602061054d85828601610502565b9150509250929050565b610560816104e1565b82525050565b600060208201905061057b6000830184610557565b92915050565b7f4e487b7100000000000000000000000000000000000000000000000000000000600052601160045260246000fd5b60006105bb826104e1565b91507fffffffffffffffffffffffffffffffffffffffffffffffffffffffffffffffff8214156105ee576105ed610581565b5b600182019050919050565b6000819050919050565b61061461060f826104e1565b6105f9565b82525050565b600073ffffffffffffffffffffffffffffffffffffffff82169050919050565b60006106458261061a565b9050919050565b60008160601b9050919050565b60006106648261064c565b9050919050565b600061067682610659565b9050919050565b61068e6106898261063a565b61066b565b82525050565b60006106a08286610603565b6020820191506106b0828561067d565b6014820191506106c08284610603565b602082019150819050949350505050565b7f4e487b7100000000000000000000000000000000000000000000000000000000600052601260045260246000fd5b600061070b826104e1565b9150610716836104e1565b925082610726576107256106d1565b5b828206905092915050565b600061073c826104e1565b9150610747836104e1565b92508282101561075a57610759610581565b5b828203905092915050565b6000610770826104e1565b915061077b836104e1565b9250817fffffffffffffffffffffffffffffffffffffffffffffffffffffffffffffffff04831182151516156107b4576107b3610581565b5b828202905092915050565b60006107ca826104e1565b91506107d5836104e1565b9250826107e5576107e46106d1565b5b828204905092915050565b60006107fb826104e1565b9150610806836104e1565b9250827fffffffffffffffffffffffffffffffffffffffffffffffffffffffffffffffff0382111561083b5761083a610581565b5b828201905092915050565b7f4e487b7100000000000000000000000000000000000000000000000000000000600052603260045260246000fd5b7f4e487b7100000000000000000000000000000000000000000000000000000000600052603160045260246000fd5b60006108af826104e1565b915060008214156108c3576108c2610581565b5b60018203905091905056fea26469706673582212205a8175334b1f86669e1839f21cf9155df6212dcf00889035392ba442caf97e4d64736f6c634300080a0033",
  "immutableReferences": {},
  "source": "// SPDX-License-Identifier: GPL-3.0\r\npragma solidity >=0.7.0 <0.9.0;\r\n\r\ncontract verify_random\r\n{\r\n    uint random_temp = 0;\r\n    uint public random_num;\r\n    struct person{\r\n        uint id;\r\n        uint rep_score;\r\n        bool verdict;\r\n    }\r\n\r\n    person [] private v_members;\r\n    uint [] pred_arr;\r\n    uint [] selected_5_verifiers;\r\n    mapping(uint => bool) Hsh;\r\n    uint global_id = 0;\r\n\r\n    mapping (address => bool) private verifiers;\r\n    mapping (uint => person) private registered;\r\n    mapping (address => person) private add_to_person;\r\n\r\n    function verify() internal returns(bool){\r\n        reset();\r\n        select_5_people();\r\n        // send notification to 5 verifiers and update the verdict of the particular person.\r\n        return update_score();\r\n    }\r\n\r\n    function reset() public\r\n    {\r\n        for(uint i=0;i<v_members.length;i++)\r\n        {\r\n            Hsh[v_members[i].id] = true; \r\n        }\r\n        uint len = pred_arr.length;\r\n        while(len != 0)\r\n        {\r\n            pred_arr.pop();\r\n            len--;\r\n        }\r\n        len = selected_5_verifiers.length;\r\n        while(len != 0)\r\n        {\r\n            selected_5_verifiers.pop();\r\n            len--;\r\n        }\r\n    }\r\n\r\n    function ver_register() public \r\n    {\r\n        require(verifiers[msg.sender] == false);\r\n        verifiers[msg.sender] = true;\r\n        person memory p;\r\n        p.id = global_id ++;\r\n        p.rep_score = 1;\r\n        registered[p.id] = p;\r\n        Hsh[p.id] = true;\r\n        v_members.push(p);\r\n        add_to_person[msg.sender] = p;\r\n    }\r\n\r\n    function generate_random(uint num_max, uint num_min) public returns (uint)\r\n    {\r\n        random_temp++;\r\n        random_num =  uint(keccak256(abi.encodePacked(block.timestamp,msg.sender,random_temp))) % 100;\r\n        uint old_range = 100;  \r\n        uint new_range = num_max - num_min;\r\n        return (((random_num - 0) * new_range) / old_range) + num_min;\r\n    }\r\n    function clear_pred_arr() internal \r\n    {\r\n        uint len = pred_arr.length;\r\n        while(len != 0)\r\n        {\r\n            pred_arr.pop();\r\n            len--;\r\n        }\r\n    }\r\n    function fill_pred_arr () internal returns(uint)\r\n    {\r\n        uint track;\r\n        for(uint i = 0; i < v_members.length; i++)\r\n        {\r\n            if(Hsh[v_members[i].id] == true)\r\n            {\r\n                track = v_members[i].rep_score;\r\n                for(uint j = 0; j < track ; j++)\r\n                {\r\n                    pred_arr.push(v_members[i].id);\r\n                }\r\n            }\r\n            else\r\n            {\r\n                continue;\r\n            }\r\n        }\r\n        uint ran = generate_random(pred_arr.length-1, 0);\r\n        Hsh[pred_arr[ran]] = false;\r\n        return pred_arr[ran];\r\n    }\r\n    \r\n    function select_5_people() internal\r\n    {\r\n        require(v_members.length >= 5);\r\n        uint T = 5;\r\n        while(T != 0)\r\n        {\r\n            selected_5_verifiers.push(fill_pred_arr());\r\n            clear_pred_arr();\r\n        }\r\n    }\r\n\r\n    function choose_final_verdict() internal view returns(bool)\r\n    {\r\n        require(selected_5_verifiers.length >= 5);\r\n        uint yes;\r\n        uint no;\r\n\r\n        for(uint i = 0; i < selected_5_verifiers.length; i++)\r\n        {\r\n            if(registered[selected_5_verifiers[i]].verdict == true)\r\n            {\r\n                yes ++;\r\n            }\r\n\r\n            else\r\n            {\r\n                no ++;\r\n            }\r\n        }\r\n\r\n        return yes >= no;\r\n    }\r\n\r\n    function approve() internal\r\n    {\r\n        add_to_person[msg.sender].verdict = true;\r\n    }\r\n\r\n    function reject() internal\r\n    {\r\n        add_to_person[msg.sender].verdict = false;\r\n    } \r\n\r\n    function update_score() internal returns(bool)\r\n    {\r\n        bool review = choose_final_verdict();\r\n        for(uint i = 0; i < selected_5_verifiers.length; i ++)\r\n        {\r\n            if(review == registered[selected_5_verifiers[i]].verdict)\r\n            {\r\n                registered[selected_5_verifiers[i]].rep_score ++;\r\n            }\r\n\r\n            else\r\n            {\r\n                registered[selected_5_verifiers[i]].rep_score --;\r\n            }\r\n        }\r\n        return review;\r\n    }  \r\n}",
  "sourcePath": "F:\\project\\Saffron_Final_year\\contracts\\consensus\\verify_random.sol",
  "compiler": {
    "name": "solc",
    "version": "0.8.10+commit.fc410830.Emscripten.clang"
  },
  "schemaVersion": "3.3.4",
  "updatedAt": "2022-05-19T12:22:06.230Z",
  "devdoc": {
    "kind": "dev",
    "methods": {},
    "version": 1
  },
  "userdoc": {
    "kind": "user",
    "methods": {},
    "version": 1
  }
}